{
  "address": "0x3B2FE8146f7a8B8610643d2DD9E2313D314526F2",
  "_format": "hh-sol-artifact-1",
  "contractName": "SwapTokens",
  "sourceName": "contracts/SwapTokens.sol",
  "abi": [
    {
      "inputs": [],
      "stateMutability": "nonpayable",
      "type": "constructor"
    },
    {
      "inputs": [
        {
          "internalType": "address",
          "name": "token_address",
          "type": "address"
        },
        {
          "internalType": "uint256",
          "name": "amount",
          "type": "uint256"
        }
      ],
      "name": "addLiquidity",
      "outputs": [],
      "stateMutability": "nonpayable",
      "type": "function"
    },
    {
      "inputs": [
        {
          "internalType": "address",
          "name": "spender",
          "type": "address"
        },
        {
          "internalType": "uint256",
          "name": "amout",
          "type": "uint256"
        }
      ],
      "name": "approve",
      "outputs": [],
      "stateMutability": "nonpayable",
      "type": "function"
    },
    {
      "inputs": [
        {
          "internalType": "address",
          "name": "token",
          "type": "address"
        },
        {
          "internalType": "address",
          "name": "account",
          "type": "address"
        }
      ],
      "name": "balenceOf",
      "outputs": [
        {
          "internalType": "uint256",
          "name": "",
          "type": "uint256"
        }
      ],
      "stateMutability": "view",
      "type": "function"
    },
    {
      "inputs": [
        {
          "internalType": "address",
          "name": "from",
          "type": "address"
        },
        {
          "internalType": "address",
          "name": "to",
          "type": "address"
        },
        {
          "internalType": "uint256",
          "name": "amount",
          "type": "uint256"
        }
      ],
      "name": "getSwapPrice",
      "outputs": [
        {
          "internalType": "uint256",
          "name": "",
          "type": "uint256"
        }
      ],
      "stateMutability": "view",
      "type": "function"
    },
    {
      "inputs": [
        {
          "internalType": "address",
          "name": "_token1",
          "type": "address"
        },
        {
          "internalType": "address",
          "name": "_token2",
          "type": "address"
        }
      ],
      "name": "setTokens",
      "outputs": [],
      "stateMutability": "nonpayable",
      "type": "function"
    },
    {
      "inputs": [
        {
          "internalType": "address",
          "name": "from",
          "type": "address"
        },
        {
          "internalType": "address",
          "name": "to",
          "type": "address"
        },
        {
          "internalType": "uint256",
          "name": "amount",
          "type": "uint256"
        }
      ],
      "name": "swap",
      "outputs": [],
      "stateMutability": "nonpayable",
      "type": "function"
    },
    {
      "inputs": [],
      "name": "token1",
      "outputs": [
        {
          "internalType": "address",
          "name": "",
          "type": "address"
        }
      ],
      "stateMutability": "view",
      "type": "function"
    },
    {
      "inputs": [],
      "name": "token2",
      "outputs": [
        {
          "internalType": "address",
          "name": "",
          "type": "address"
        }
      ],
      "stateMutability": "view",
      "type": "function"
    }
  ],
  "bytecode": "0x608060405234801561001057600080fd5b5033600260006101000a81548173ffffffffffffffffffffffffffffffffffffffff021916908373ffffffffffffffffffffffffffffffffffffffff160217905550610efc806100616000396000f3fe608060405234801561001057600080fd5b50600436106100885760003560e01c8063cbc7854e1161005b578063cbc7854e14610113578063d21220a71461012f578063d2bb65e21461014d578063df791e501461017d57610088565b8063095ea7b31461008d57806325be124e146100a957806356688700146100c7578063bfd7e00d146100e3575b600080fd5b6100a760048036038101906100a29190610ade565b610199565b005b6100b16102bd565b6040516100be9190610b2d565b60405180910390f35b6100e160048036038101906100dc9190610ade565b6102e3565b005b6100fd60048036038101906100f89190610b48565b6103c2565b60405161010a9190610baa565b60405180910390f35b61012d60048036038101906101289190610bc5565b6104d6565b005b6101376105b5565b6040516101449190610b2d565b60405180910390f35b61016760048036038101906101629190610bc5565b6105d9565b6040516101749190610baa565b60405180910390f35b61019760048036038101906101929190610b48565b61065d565b005b60008054906101000a900473ffffffffffffffffffffffffffffffffffffffff1673ffffffffffffffffffffffffffffffffffffffff1663e1f21c673384846040518463ffffffff1660e01b81526004016101f693929190610c05565b600060405180830381600087803b15801561021057600080fd5b505af1158015610224573d6000803e3d6000fd5b50505050600160009054906101000a900473ffffffffffffffffffffffffffffffffffffffff1673ffffffffffffffffffffffffffffffffffffffff1663e1f21c673384846040518463ffffffff1660e01b815260040161028793929190610c05565b600060405180830381600087803b1580156102a157600080fd5b505af11580156102b5573d6000803e3d6000fd5b505050505050565b600160009054906101000a900473ffffffffffffffffffffffffffffffffffffffff1681565b600260009054906101000a900473ffffffffffffffffffffffffffffffffffffffff1673ffffffffffffffffffffffffffffffffffffffff163373ffffffffffffffffffffffffffffffffffffffff161461033d57600080fd5b8173ffffffffffffffffffffffffffffffffffffffff166323b872dd3330846040518463ffffffff1660e01b815260040161037a93929190610c05565b6020604051808303816000875af1158015610399573d6000803e3d6000fd5b505050506040513d601f19601f820116820180604052508101906103bd9190610c74565b505050565b60008373ffffffffffffffffffffffffffffffffffffffff166370a08231306040518263ffffffff1660e01b81526004016103fd9190610b2d565b602060405180830381865afa15801561041a573d6000803e3d6000fd5b505050506040513d601f19601f8201168201806040525081019061043e9190610cb6565b8373ffffffffffffffffffffffffffffffffffffffff166370a08231306040518263ffffffff1660e01b81526004016104779190610b2d565b602060405180830381865afa158015610494573d6000803e3d6000fd5b505050506040513d601f19601f820116820180604052508101906104b89190610cb6565b836104c39190610d12565b6104cd9190610d83565b90509392505050565b600260009054906101000a900473ffffffffffffffffffffffffffffffffffffffff1673ffffffffffffffffffffffffffffffffffffffff163373ffffffffffffffffffffffffffffffffffffffff161461053057600080fd5b816000806101000a81548173ffffffffffffffffffffffffffffffffffffffff021916908373ffffffffffffffffffffffffffffffffffffffff16021790555080600160006101000a81548173ffffffffffffffffffffffffffffffffffffffff021916908373ffffffffffffffffffffffffffffffffffffffff1602179055505050565b60008054906101000a900473ffffffffffffffffffffffffffffffffffffffff1681565b60008273ffffffffffffffffffffffffffffffffffffffff166370a08231836040518263ffffffff1660e01b81526004016106149190610b2d565b602060405180830381865afa158015610631573d6000803e3d6000fd5b505050506040513d601f19601f820116820180604052508101906106559190610cb6565b905092915050565b60008054906101000a900473ffffffffffffffffffffffffffffffffffffffff1673ffffffffffffffffffffffffffffffffffffffff168373ffffffffffffffffffffffffffffffffffffffff161480156107055750600160009054906101000a900473ffffffffffffffffffffffffffffffffffffffff1673ffffffffffffffffffffffffffffffffffffffff168273ffffffffffffffffffffffffffffffffffffffff16145b806107b45750600160009054906101000a900473ffffffffffffffffffffffffffffffffffffffff1673ffffffffffffffffffffffffffffffffffffffff168373ffffffffffffffffffffffffffffffffffffffff161480156107b3575060008054906101000a900473ffffffffffffffffffffffffffffffffffffffff1673ffffffffffffffffffffffffffffffffffffffff168273ffffffffffffffffffffffffffffffffffffffff16145b5b6107f3576040517f08c379a00000000000000000000000000000000000000000000000000000000081526004016107ea90610e11565b60405180910390fd5b808373ffffffffffffffffffffffffffffffffffffffff166370a08231336040518263ffffffff1660e01b815260040161082d9190610b2d565b602060405180830381865afa15801561084a573d6000803e3d6000fd5b505050506040513d601f19601f8201168201806040525081019061086e9190610cb6565b10156108af576040517f08c379a00000000000000000000000000000000000000000000000000000000081526004016108a690610e7d565b60405180910390fd5b60006108bc8484846103c2565b90508373ffffffffffffffffffffffffffffffffffffffff166323b872dd3330856040518463ffffffff1660e01b81526004016108fb93929190610c05565b6020604051808303816000875af115801561091a573d6000803e3d6000fd5b505050506040513d601f19601f8201168201806040525081019061093e9190610c74565b508273ffffffffffffffffffffffffffffffffffffffff1663095ea7b330836040518363ffffffff1660e01b815260040161097a929190610e9d565b6020604051808303816000875af1158015610999573d6000803e3d6000fd5b505050506040513d601f19601f820116820180604052508101906109bd9190610c74565b508273ffffffffffffffffffffffffffffffffffffffff166323b872dd3033846040518463ffffffff1660e01b81526004016109fb93929190610c05565b6020604051808303816000875af1158015610a1a573d6000803e3d6000fd5b505050506040513d601f19601f82011682018060405250810190610a3e9190610c74565b5050505050565b600080fd5b600073ffffffffffffffffffffffffffffffffffffffff82169050919050565b6000610a7582610a4a565b9050919050565b610a8581610a6a565b8114610a9057600080fd5b50565b600081359050610aa281610a7c565b92915050565b6000819050919050565b610abb81610aa8565b8114610ac657600080fd5b50565b600081359050610ad881610ab2565b92915050565b60008060408385031215610af557610af4610a45565b5b6000610b0385828601610a93565b9250506020610b1485828601610ac9565b9150509250929050565b610b2781610a6a565b82525050565b6000602082019050610b426000830184610b1e565b92915050565b600080600060608486031215610b6157610b60610a45565b5b6000610b6f86828701610a93565b9350506020610b8086828701610a93565b9250506040610b9186828701610ac9565b9150509250925092565b610ba481610aa8565b82525050565b6000602082019050610bbf6000830184610b9b565b92915050565b60008060408385031215610bdc57610bdb610a45565b5b6000610bea85828601610a93565b9250506020610bfb85828601610a93565b9150509250929050565b6000606082019050610c1a6000830186610b1e565b610c276020830185610b1e565b610c346040830184610b9b565b949350505050565b60008115159050919050565b610c5181610c3c565b8114610c5c57600080fd5b50565b600081519050610c6e81610c48565b92915050565b600060208284031215610c8a57610c89610a45565b5b6000610c9884828501610c5f565b91505092915050565b600081519050610cb081610ab2565b92915050565b600060208284031215610ccc57610ccb610a45565b5b6000610cda84828501610ca1565b91505092915050565b7f4e487b7100000000000000000000000000000000000000000000000000000000600052601160045260246000fd5b6000610d1d82610aa8565b9150610d2883610aa8565b9250828202610d3681610aa8565b91508282048414831517610d4d57610d4c610ce3565b5b5092915050565b7f4e487b7100000000000000000000000000000000000000000000000000000000600052601260045260246000fd5b6000610d8e82610aa8565b9150610d9983610aa8565b925082610da957610da8610d54565b5b828204905092915050565b600082825260208201905092915050565b7f496e76616c696420746f6b656e73000000000000000000000000000000000000600082015250565b6000610dfb600e83610db4565b9150610e0682610dc5565b602082019050919050565b60006020820190508181036000830152610e2a81610dee565b9050919050565b7f4e6f7420656e6f75676820746f20737761700000000000000000000000000000600082015250565b6000610e67601283610db4565b9150610e7282610e31565b602082019050919050565b60006020820190508181036000830152610e9681610e5a565b9050919050565b6000604082019050610eb26000830185610b1e565b610ebf6020830184610b9b565b939250505056fea26469706673582212201f17546ea2b16b335e43c10e9543ce743b65457f9c0a5825aa1d262f628b2c6464736f6c63430008140033",
  "linkReferences": {},
  "deployedLinkReferences": {}
}